S0200000496E6372656D656E742077697468206561636820707573682E73726563F2
S11300000C942A000C9447000C9447000C9447006D
S11300100C9447000C9447000C9447000C94470040
S11300200C9447000C9447000C9447000C94470030
S11300300C9447000C9447000C9447000C94470020
S11300400C9447000C9447000C9447000C94470010
S11300500C94470011241FBECFE5D8E0DEBFCDBF0E
S113006010E0A0E6B0E0EAE3F4E002C005900D92EF
S1130070AA36B107D9F710E0AAE6B0E001C01D9294
S1130080AA36B107E1F70E94C1010C941B020C943B
S11300900000823451F1833420F4813409F07BC0B0
S11300A007C0833409F43EC0843409F074C057C0D7
S11300B0442369F02AB381E090E0AC0102C0440F0C
S11300C0551F6A95E2F7BA01622B6ABB08952AB3F9
S11300D081E090E0AC0102C0440F551F6A95E2F73D
S11300E0BA01609562236ABB0895442369F027B37B
S11300F081E090E0AC0102C0440F551F6A95E2F71D
S1130100BA01622B67BB089527B381E090E0AC018C
S113011002C0440F551F6A95E2F7BA016095622345
S113012067BB0895442369F024B381E090E0AC01F7
S113013002C0440F551F6A95E2F7BA01622B64BBF3
S1130140089524B381E090E0AC0102C0440F551F30
S11301506A95E2F7BA016095622364BB089544236B
S113016069F021B381E090E0AC0102C0440F551F57
S11301706A95E2F7BA01622B61BB089521B381E06D
S113018090E0AC0102C0440F551F6A95E2F7BA0132
S11301906095622361BB0895823489F0833418F436
S11301A0813409F505C0833489F08434E1F415C041
S11301B0662319F08FEF8ABB08951ABA089566234F
S11301C019F08FEF87BB089517BA0895662319F0C5
S11301D08FEF84BB089514BA0895662319F08FEF46
S11301E081BB089511BA0895823451F1833420F407
S11301F0813409F07BC007C0833409F43EC08434E1
S113020009F074C057C0442369F02BB381E090E037
S1130210AC0102C0440F551F6A95E2F7BA01622B84
S11302206BBB08952BB381E090E0AC0102C0440F96
S1130230551F6A95E2F7BA01609562236BBB089576
S1130240442369F028B381E090E0AC0102C0440F7C
S1130250551F6A95E2F7BA01622B68BB089528B36B
S113026081E090E0AC0102C0440F551F6A95E2F7AB
S1130270BA016095622368BB0895442369F025B3ED
S113028081E090E0AC0102C0440F551F6A95E2F78B
S1130290BA01622B65BB089525B381E090E0AC01FF
S11302A002C0440F551F6A95E2F7BA0160956223B4
S11302B065BB0895442369F022B381E090E0AC016A
S11302C002C0440F551F6A95E2F7BA01622B62BB64
S11302D0089522B381E090E0AC0102C0440F551FA1
S11302E06A95E2F7BA016095622362BB089582348D
S11302F061F0833418F4813469F405C0833439F02F
S1130300843441F406C06BBB089568BB089565BB93
S1130310089562BB08958234A1F0833418F48134C3
S113032071F505C08334B9F0843449F51EC029B38E
S113033030E0C90102C0959587956A95E2F781700E
S1130340089526B330E0C90102C0959587956A9552
S1130350E2F78170089523B330E0C90102C0959596
S113036087956A95E2F78170089520B330E0C9015A
S113037002C0959587956A95E2F78170089580E0AB
S113038008950E94EC0180E090E0089561E00E94ED
S1130390CC000895CF93DF93CDB7DEB72A970FB67D
S11303A0F894DEBF0FBECDBFDE011196E0E6F0E0AB
S11303B09AE001900D929150E1F7FE01E60FF11DD4
S11303C061810E9477012A960FB6F894DEBF0FBEB2
S11303D0CDBFDF91CF91089581E40E94C60184E4EA
S11303E060E00E94100284E460E00E941402C0E015
S11303F081E46C2F0E94CA0184E460E00E94180228
S1130400882309F4CF5FCA3008F0C0E08FED93E988
S1130410A4E081509040A040E1F700C00000E8CF84
S113042040E00E944900089541E00E94F4000895CC
S10D04300E948B010895F894FFCF99
S10D043AC0F9A4B0999282B8809032
S9030000FC
