S01E0000736576656E207365676D656E742077697468204243442E737265630D
S11300000C942A000C9447000C9447000C9447006D
S11300100C9447000C9447000C9447000C94470040
S11300200C9447000C9447000C9447000C94470030
S11300300C9447000C9447000C9447000C94470020
S11300400C9447000C9447000C9447000C94470010
S11300500C94470011241FBECFE5D8E0DEBFCDBF0E
S113006010E0A0E6B0E0E6EEF5E002C005900D92E7
S1130070A036B107D9F710E0A0E6B0E001C01D92A8
S1130080A036B107E1F70E94EC020C94F1020C9443
S1130090000090E00E948402089590E070E00E94C5
S11300A0C802089590E00E946802089590E070E00C
S11300B00E94A0020895CF93C82F90E060E070E002
S11300C041E050E00E942E018C2F90E061E070E04E
S11300D041E050E00E942E018C2F90E062E070E03D
S11300E041E050E00E942E018C2F90E063E070E02C
S11300F041E050E00E942E01CF910895CF93DF9309
S1130100D82FC62F862F90E060E070E00E94320264
S1130110AC018D2F90E060E070E00E94B0018C2F64
S113012090E061E070E00E943202AC018D2F90E01B
S113013061E070E00E94B0018C2F90E062E070E01A
S11301400E943202AC018D2F90E062E070E00E94C8
S1130150B0018C2F90E063E070E00E943202AC01A9
S11301608D2F90E063E070E00E94B001DF91CF91A9
S11301700895CF93C82F90E064E070E041E050E030
S11301800E942E018C2F90E065E070E041E050E089
S11301900E942E018C2F90E066E070E041E050E078
S11301A00E942E018C2F90E067E070E041E050E067
S11301B00E942E01CF910895CF93DF93D82FC62F9D
S11301C0862F90E060E070E00E943202AC018D2F37
S11301D090E064E070E00E94B0018C2F90E061E058
S11301E070E00E943202AC018D2F90E065E070E077
S11301F00E94B0018C2F90E062E070E00E94320215
S1130200AC018D2F90E066E070E00E94B0018C2F6D
S113021090E063E070E00E943202AC018D2F90E028
S113022067E070E00E94B001DF91CF91089581E40E
S11302300E944900C0E0D0E081E46C2F0E944D0090
S11302408FE79AE1A6E081509040A040E1F700C01A
S11302500000CF5FCA3080F3CD2FEECF823449F156
S1130260833420F4813409F07AC006C08334F1F178
S1130270843409F074C057C0442369F04AB321E0C0
S113028030E0C901062E02C0880F991F0A94E2F7D4
S1130290842B8ABB10C04AB321E030E0C901062E8A
S11302A002C0880F991F0A94E2F7809584238ABBC1
S11302B00FC0442369F047B321E030E0C901062EA2
S11302C002C0880F991F0A94E2F7842B87BB10C0E1
S11302D047B321E030E0C901062E02C0880F991F00
S11302E00A94E2F78095842387BB0FC0442369F006
S11302F044B321E030E0C901062E02C0880F991FE3
S11303000A94E2F7842B84BB10C044B321E030E0AC
S1130310C901062E02C0880F991F0A94E2F780953E
S1130320842384BB0FC0442369F021B381E090E0AF
S1130330AC0102C0440F551F6A95E2F7BA01622B63
S113034061BB089521B381E090E0AC0102C0440F89
S1130350551F6A95E2F7BA016095622361BB08955F
S1130360823449F1833420F4813409F07AC006C020
S11303708334F1F1843409F074C057C0442369F024
S11303804BB321E030E0C901062E02C0880F991F4B
S11303900A94E2F7842B8BBB10C04BB321E030E00E
S11303A0C901062E02C0880F991F0A94E2F78095AE
S11303B084238BBB0FC0442369F048B321E030E0B1
S11303C0C901062E02C0880F991F0A94E2F7842BF4
S11303D088BB10C048B321E030E0C901062E02C03A
S11303E0880F991F0A94E2F78095842388BB0FC075
S11303F0442369F045B321E030E0C901062E02C070
S1130400880F991F0A94E2F7842B85BB10C045B36B
S113041021E030E0C901062E02C0880F991F0A941A
S1130420E2F78095842385BB0FC0442369F022B38F
S113043081E090E0AC0102C0440F551F6A95E2F7D9
S1130440BA01622B62BB089522B381E090E0AC0153
S113045002C0440F551F6A95E2F7BA016095622302
S113046062BB08958234A1F0833418F4813471F5A9
S113047005C08334B9F0843449F51EC029B330E093
S1130480C90102C0959587956A95E2F78170089530
S113049026B330E0C90102C0959587956A95E2F7C5
S11304A08170089523B330E0C90102C09595879502
S11304B06A95E2F78170089520B330E0C90102C063
S11304C0959587956A95E2F78170089580E008957F
S11304D0823471F0833418F48134A9F405C0833470
S11304E059F0843481F40CC08AB3806F8ABB0895B8
S11304F087B3806F87BB089584B3806F84BB0895EE
S113050081B3806F81BB0895823471F0833418F411
S11305108134A9F405C0833459F0843481F40CC0C7
S11305208AB38F608ABB089587B38F6087BB0895B1
S113053084B38F6084BB089581B38F6081BB0895B9
S1130540823489F0833418F4813409F505C0833486
S113055089F08434E1F415C08BB36295607F8F70A9
S1130560682B6BBB089588B36295607F8F70682B8E
S113057068BB089585B36295607F8F70682B65BBF7
S1130580089582B36295607F8F70682B62BB089573
S1130590823481F0833418F48134E9F405C083345F
S11305A079F08434C1F412C08BB36F70807F682BF0
S11305B06BBB089588B36F70807F682B68BB089508
S11305C085B36F70807F682B65BB089582B36F70AD
S11305D0807F682B62BB08950E94170180E090E041
S10905E00895F894FFCF1A
S9030000FC
